{
  "_format": "hh-sol-artifact-1",
  "contractName": "VotingV3",
  "sourceName": "contracts/Voting.sol",
  "abi": [
    {
      "inputs": [],
      "stateMutability": "nonpayable",
      "type": "constructor"
    },
    {
      "inputs": [
        {
          "internalType": "string",
          "name": "_name",
          "type": "string"
        }
      ],
      "name": "addCandidate",
      "outputs": [],
      "stateMutability": "nonpayable",
      "type": "function"
    },
    {
      "inputs": [
        {
          "internalType": "uint256",
          "name": "",
          "type": "uint256"
        }
      ],
      "name": "candidates",
      "outputs": [
        {
          "internalType": "uint256",
          "name": "id",
          "type": "uint256"
        },
        {
          "internalType": "string",
          "name": "name",
          "type": "string"
        },
        {
          "internalType": "uint256",
          "name": "votes",
          "type": "uint256"
        }
      ],
      "stateMutability": "view",
      "type": "function"
    },
    {
      "inputs": [],
      "name": "checkElectionPeriod",
      "outputs": [
        {
          "internalType": "bool",
          "name": "",
          "type": "bool"
        }
      ],
      "stateMutability": "nonpayable",
      "type": "function"
    },
    {
      "inputs": [],
      "name": "electionStarted",
      "outputs": [
        {
          "internalType": "bool",
          "name": "",
          "type": "bool"
        }
      ],
      "stateMutability": "view",
      "type": "function"
    },
    {
      "inputs": [],
      "name": "electionTimer",
      "outputs": [
        {
          "internalType": "uint256",
          "name": "",
          "type": "uint256"
        }
      ],
      "stateMutability": "view",
      "type": "function"
    },
    {
      "inputs": [],
      "name": "endElection",
      "outputs": [],
      "stateMutability": "nonpayable",
      "type": "function"
    },
    {
      "inputs": [
        {
          "internalType": "uint256",
          "name": "",
          "type": "uint256"
        }
      ],
      "name": "listOfVoters",
      "outputs": [
        {
          "internalType": "address",
          "name": "",
          "type": "address"
        }
      ],
      "stateMutability": "view",
      "type": "function"
    },
    {
      "inputs": [],
      "name": "owner",
      "outputs": [
        {
          "internalType": "address",
          "name": "",
          "type": "address"
        }
      ],
      "stateMutability": "view",
      "type": "function"
    },
    {
      "inputs": [],
      "name": "resetAllVoterStatus",
      "outputs": [],
      "stateMutability": "nonpayable",
      "type": "function"
    },
    {
      "inputs": [],
      "name": "retrieveVotes",
      "outputs": [
        {
          "components": [
            {
              "internalType": "uint256",
              "name": "id",
              "type": "uint256"
            },
            {
              "internalType": "string",
              "name": "name",
              "type": "string"
            },
            {
              "internalType": "uint256",
              "name": "votes",
              "type": "uint256"
            }
          ],
          "internalType": "struct VotingV3.Candidate[]",
          "name": "",
          "type": "tuple[]"
        }
      ],
      "stateMutability": "view",
      "type": "function"
    },
    {
      "inputs": [
        {
          "internalType": "string[]",
          "name": "_candidates",
          "type": "string[]"
        },
        {
          "internalType": "uint256",
          "name": "_votingDuration",
          "type": "uint256"
        }
      ],
      "name": "startElection",
      "outputs": [],
      "stateMutability": "nonpayable",
      "type": "function"
    },
    {
      "inputs": [
        {
          "internalType": "uint256",
          "name": "_id",
          "type": "uint256"
        }
      ],
      "name": "voteTo",
      "outputs": [],
      "stateMutability": "nonpayable",
      "type": "function"
    },
    {
      "inputs": [
        {
          "internalType": "address",
          "name": "_voter",
          "type": "address"
        }
      ],
      "name": "voterStatus",
      "outputs": [
        {
          "internalType": "bool",
          "name": "",
          "type": "bool"
        }
      ],
      "stateMutability": "view",
      "type": "function"
    },
    {
      "inputs": [
        {
          "internalType": "address",
          "name": "",
          "type": "address"
        }
      ],
      "name": "voters",
      "outputs": [
        {
          "internalType": "bool",
          "name": "",
          "type": "bool"
        }
      ],
      "stateMutability": "view",
      "type": "function"
    },
    {
      "inputs": [],
      "name": "votingEnd",
      "outputs": [
        {
          "internalType": "uint256",
          "name": "",
          "type": "uint256"
        }
      ],
      "stateMutability": "view",
      "type": "function"
    },
    {
      "inputs": [],
      "name": "votingStart",
      "outputs": [
        {
          "internalType": "uint256",
          "name": "",
          "type": "uint256"
        }
      ],
      "stateMutability": "view",
      "type": "function"
    }
  ],
  "bytecode": "0x6080604052348015600f57600080fd5b5033600160006101000a81548173ffffffffffffffffffffffffffffffffffffffff021916908373ffffffffffffffffffffffffffffffffffffffff160217905550611c85806100606000396000f3fe608060405234801561001057600080fd5b50600436106101005760003560e01c806359f7846811610097578063a3ec138d11610066578063a3ec138d1461028b578063d4608b72146102bb578063d4a6cac8146102c5578063d5346da1146102e357610100565b806359f784681461021557806385a386351461021f5780638da5cb5b1461023d5780639a53cbea1461025b57610100565b80633c9a4df3116100d35780633c9a4df31461018f5780633d7b995c146101ad578063462e91ec146101c9578063576cc4f2146101e557610100565b8063031e5004146101055780630b56a68114610123578063101158af1461013f5780633477ee2e1461015d575b600080fd5b61010d610301565b60405161011a91906110cd565b60405180910390f35b61013d6004803603810190610138919061134a565b610406565b005b6101476105ec565b60405161015491906113b5565b60405180910390f35b610177600480360381019061017291906113d0565b6105f2565b60405161018693929190611447565b60405180910390f35b6101976106b4565b6040516101a491906113b5565b60405180910390f35b6101c760048036038101906101c291906113d0565b61072a565b005b6101e360048036038101906101de9190611485565b610902565b005b6101ff60048036038101906101fa919061152c565b610aa3565b60405161020c9190611574565b60405180910390f35b61021d610b48565b005b610227610c0a565b60405161023491906113b5565b60405180910390f35b610245610c10565b604051610252919061159e565b60405180910390f35b610275600480360381019061027091906113d0565b610c36565b604051610282919061159e565b60405180910390f35b6102a560048036038101906102a0919061152c565b610c75565b6040516102b29190611574565b60405180910390f35b6102c3610c95565b005b6102cd610de9565b6040516102da9190611574565b60405180910390f35b6102eb610e26565b6040516102f89190611574565b60405180910390f35b60606000805480602002602001604051908101604052809291908181526020016000905b828210156103fd578382906000526020600020906003020160405180606001604052908160008201548152602001600182018054610362906115e8565b80601f016020809104026020016040519081016040528092919081815260200182805461038e906115e8565b80156103db5780601f106103b0576101008083540402835291602001916103db565b820191906000526020600020905b8154815290600101906020018083116103be57829003601f168201915b5050505050815260200160028201548152505081526020019060010190610325565b50505050905090565b600160009054906101000a900473ffffffffffffffffffffffffffffffffffffffff1673ffffffffffffffffffffffffffffffffffffffff163373ffffffffffffffffffffffffffffffffffffffff1614610496576040517f08c379a000000000000000000000000000000000000000000000000000000000815260040161048d9061168b565b60405180910390fd5b60001515600660009054906101000a900460ff161515146104ec576040517f08c379a00000000000000000000000000000000000000000000000000000000081526004016104e3906116f7565b60405180910390fd5b6000806104f99190610e39565b610501610c95565b60005b82518110156105a7576000604051806060016040528083815260200185848151811061053357610532611717565b5b602002602001015181526020016000815250908060018154018082558091505060019003906000526020600020906003020160009091909190915060008201518160000155602082015181600101908161058d91906118f2565b506040820151816002015550508080600101915050610504565b506001600660006101000a81548160ff02191690831515021790555042600481905550603c816105d791906119f3565b426105e29190611a35565b6005819055505050565b60045481565b6000818154811061060257600080fd5b906000526020600020906003020160009150905080600001549080600101805461062b906115e8565b80601f0160208091040260200160405190810160405280929190818152602001828054610657906115e8565b80156106a45780601f10610679576101008083540402835291602001916106a4565b820191906000526020600020905b81548152906001019060200180831161068757829003601f168201915b5050505050908060020154905083565b6000600660009054906101000a900460ff16610705576040517f08c379a00000000000000000000000000000000000000000000000000000000081526004016106fc90611ab5565b60405180910390fd5b600554421015610722574260055461071d9190611ad5565b610725565b60005b905090565b600660009054906101000a900460ff16610779576040517f08c379a000000000000000000000000000000000000000000000000000000000815260040161077090611ab5565b60405180910390fd5b610781610de9565b6107c0576040517f08c379a00000000000000000000000000000000000000000000000000000000081526004016107b790611b55565b60405180910390fd5b6107c933610aa3565b15610809576040517f08c379a000000000000000000000000000000000000000000000000000000000815260040161080090611be7565b60405180910390fd5b6000818154811061081d5761081c611717565b5b9060005260206000209060030201600201600081548092919061083f90611c07565b91905055506001600260003373ffffffffffffffffffffffffffffffffffffffff1673ffffffffffffffffffffffffffffffffffffffff16815260200190815260200160002060006101000a81548160ff0219169083151502179055506003339080600181540180825580915050600190039060005260206000200160009091909190916101000a81548173ffffffffffffffffffffffffffffffffffffffff021916908373ffffffffffffffffffffffffffffffffffffffff16021790555050565b600160009054906101000a900473ffffffffffffffffffffffffffffffffffffffff1673ffffffffffffffffffffffffffffffffffffffff163373ffffffffffffffffffffffffffffffffffffffff1614610992576040517f08c379a00000000000000000000000000000000000000000000000000000000081526004016109899061168b565b60405180910390fd5b600660009054906101000a900460ff166109e1576040517f08c379a00000000000000000000000000000000000000000000000000000000081526004016109d890611ab5565b60405180910390fd5b6109e9610de9565b610a28576040517f08c379a0000000000000000000000000000000000000000000000000000000008152600401610a1f90611b55565b60405180910390fd5b60006040518060600160405280600080549050815260200183815260200160008152509080600181540180825580915050600190039060005260206000209060030201600090919091909150600082015181600001556020820151816001019081610a9391906118f2565b5060408201518160020155505050565b6000600660009054906101000a900460ff16610af4576040517f08c379a0000000000000000000000000000000000000000000000000000000008152600401610aeb90611ab5565b60405180910390fd5b600260008373ffffffffffffffffffffffffffffffffffffffff1673ffffffffffffffffffffffffffffffffffffffff16815260200190815260200160002060009054906101000a900460ff169050919050565b600160009054906101000a900473ffffffffffffffffffffffffffffffffffffffff1673ffffffffffffffffffffffffffffffffffffffff163373ffffffffffffffffffffffffffffffffffffffff1614610bd8576040517f08c379a0000000000000000000000000000000000000000000000000000000008152600401610bcf9061168b565b60405180910390fd5b6000600660006101000a81548160ff021916908315150217905550600080610c009190610e39565b610c08610c95565b565b60055481565b600160009054906101000a900473ffffffffffffffffffffffffffffffffffffffff1681565b60038181548110610c4657600080fd5b906000526020600020016000915054906101000a900473ffffffffffffffffffffffffffffffffffffffff1681565b60026020528060005260406000206000915054906101000a900460ff1681565b600160009054906101000a900473ffffffffffffffffffffffffffffffffffffffff1673ffffffffffffffffffffffffffffffffffffffff163373ffffffffffffffffffffffffffffffffffffffff1614610d25576040517f08c379a0000000000000000000000000000000000000000000000000000000008152600401610d1c9061168b565b60405180910390fd5b60005b600380549050811015610dd85760006002600060038481548110610d4f57610d4e611717565b5b9060005260206000200160009054906101000a900473ffffffffffffffffffffffffffffffffffffffff1673ffffffffffffffffffffffffffffffffffffffff1673ffffffffffffffffffffffffffffffffffffffff16815260200190815260200160002060006101000a81548160ff0219169083151502179055508080600101915050610d28565b5060036000610de79190610e5d565b565b600080610df46106b4565b1115610e035760019050610e23565b6000600660006101000a81548160ff021916908315150217905550600090505b90565b600660009054906101000a900460ff1681565b5080546000825560030290600052602060002090810190610e5a9190610e7e565b50565b5080546000825590600052602060002090810190610e7b9190610eb5565b50565b5b80821115610eb157600080820160009055600182016000610ea09190610ed2565b600282016000905550600301610e7f565b5090565b5b80821115610ece576000816000905550600101610eb6565b5090565b508054610ede906115e8565b6000825580601f10610ef05750610f0f565b601f016020900490600052602060002090810190610f0e9190610eb5565b5b50565b600081519050919050565b600082825260208201905092915050565b6000819050602082019050919050565b6000819050919050565b610f5181610f3e565b82525050565b600081519050919050565b600082825260208201905092915050565b60005b83811015610f91578082015181840152602081019050610f76565b60008484015250505050565b6000601f19601f8301169050919050565b6000610fb982610f57565b610fc38185610f62565b9350610fd3818560208601610f73565b610fdc81610f9d565b840191505092915050565b6000606083016000830151610fff6000860182610f48565b50602083015184820360208601526110178282610fae565b915050604083015161102c6040860182610f48565b508091505092915050565b60006110438383610fe7565b905092915050565b6000602082019050919050565b600061106382610f12565b61106d8185610f1d565b93508360208202850161107f85610f2e565b8060005b858110156110bb578484038952815161109c8582611037565b94506110a78361104b565b925060208a01995050600181019050611083565b50829750879550505050505092915050565b600060208201905081810360008301526110e78184611058565b905092915050565b6000604051905090565b600080fd5b600080fd5b600080fd5b7f4e487b7100000000000000000000000000000000000000000000000000000000600052604160045260246000fd5b61114082610f9d565b810181811067ffffffffffffffff8211171561115f5761115e611108565b5b80604052505050565b60006111726110ef565b905061117e8282611137565b919050565b600067ffffffffffffffff82111561119e5761119d611108565b5b602082029050602081019050919050565b600080fd5b600080fd5b600067ffffffffffffffff8211156111d4576111d3611108565b5b6111dd82610f9d565b9050602081019050919050565b82818337600083830152505050565b600061120c611207846111b9565b611168565b905082815260208101848484011115611228576112276111b4565b5b6112338482856111ea565b509392505050565b600082601f8301126112505761124f611103565b5b81356112608482602086016111f9565b91505092915050565b600061127c61127784611183565b611168565b9050808382526020820190506020840283018581111561129f5761129e6111af565b5b835b818110156112e657803567ffffffffffffffff8111156112c4576112c3611103565b5b8086016112d1898261123b565b855260208501945050506020810190506112a1565b5050509392505050565b600082601f83011261130557611304611103565b5b8135611315848260208601611269565b91505092915050565b61132781610f3e565b811461133257600080fd5b50565b6000813590506113448161131e565b92915050565b60008060408385031215611361576113606110f9565b5b600083013567ffffffffffffffff81111561137f5761137e6110fe565b5b61138b858286016112f0565b925050602061139c85828601611335565b9150509250929050565b6113af81610f3e565b82525050565b60006020820190506113ca60008301846113a6565b92915050565b6000602082840312156113e6576113e56110f9565b5b60006113f484828501611335565b91505092915050565b600082825260208201905092915050565b600061141982610f57565b61142381856113fd565b9350611433818560208601610f73565b61143c81610f9d565b840191505092915050565b600060608201905061145c60008301866113a6565b818103602083015261146e818561140e565b905061147d60408301846113a6565b949350505050565b60006020828403121561149b5761149a6110f9565b5b600082013567ffffffffffffffff8111156114b9576114b86110fe565b5b6114c58482850161123b565b91505092915050565b600073ffffffffffffffffffffffffffffffffffffffff82169050919050565b60006114f9826114ce565b9050919050565b611509816114ee565b811461151457600080fd5b50565b60008135905061152681611500565b92915050565b600060208284031215611542576115416110f9565b5b600061155084828501611517565b91505092915050565b60008115159050919050565b61156e81611559565b82525050565b60006020820190506115896000830184611565565b92915050565b611598816114ee565b82525050565b60006020820190506115b3600083018461158f565b92915050565b7f4e487b7100000000000000000000000000000000000000000000000000000000600052602260045260246000fd5b6000600282049050600182168061160057607f821691505b602082108103611613576116126115b9565b5b50919050565b7f596f7520617265206e6f7420617574686f72697a656420746f2073746172742060008201527f616e20656c656374696f6e000000000000000000000000000000000000000000602082015250565b6000611675602b836113fd565b915061168082611619565b604082019050919050565b600060208201905081810360008301526116a481611668565b9050919050565b7f456c656374696f6e2069732063757272656e746c79206f6e676f696e67000000600082015250565b60006116e1601d836113fd565b91506116ec826116ab565b602082019050919050565b60006020820190508181036000830152611710816116d4565b9050919050565b7f4e487b7100000000000000000000000000000000000000000000000000000000600052603260045260246000fd5b60008190508160005260206000209050919050565b60006020601f8301049050919050565b600082821b905092915050565b6000600883026117a87fffffffffffffffffffffffffffffffffffffffffffffffffffffffffffffffff8261176b565b6117b2868361176b565b95508019841693508086168417925050509392505050565b6000819050919050565b60006117ef6117ea6117e584610f3e565b6117ca565b610f3e565b9050919050565b6000819050919050565b611809836117d4565b61181d611815826117f6565b848454611778565b825550505050565b600090565b611832611825565b61183d818484611800565b505050565b5b818110156118615761185660008261182a565b600181019050611843565b5050565b601f8211156118a65761187781611746565b6118808461175b565b8101602085101561188f578190505b6118a361189b8561175b565b830182611842565b50505b505050565b600082821c905092915050565b60006118c9600019846008026118ab565b1980831691505092915050565b60006118e283836118b8565b9150826002028217905092915050565b6118fb82610f57565b67ffffffffffffffff81111561191457611913611108565b5b61191e82546115e8565b611929828285611865565b600060209050601f83116001811461195c576000841561194a578287015190505b61195485826118d6565b8655506119bc565b601f19841661196a86611746565b60005b828110156119925784890151825560018201915060208501945060208101905061196d565b868310156119af57848901516119ab601f8916826118b8565b8355505b6001600288020188555050505b505050505050565b7f4e487b7100000000000000000000000000000000000000000000000000000000600052601160045260246000fd5b60006119fe82610f3e565b9150611a0983610f3e565b9250828202611a1781610f3e565b91508282048414831517611a2e57611a2d6119c4565b5b5092915050565b6000611a4082610f3e565b9150611a4b83610f3e565b9250828201905080821115611a6357611a626119c4565b5b92915050565b7f4e6f20656c656374696f6e207965740000000000000000000000000000000000600082015250565b6000611a9f600f836113fd565b9150611aaa82611a69565b602082019050919050565b60006020820190508181036000830152611ace81611a92565b9050919050565b6000611ae082610f3e565b9150611aeb83610f3e565b9250828203905081811115611b0357611b026119c4565b5b92915050565b7f456c656374696f6e20706572696f642068617320656e6465642e000000000000600082015250565b6000611b3f601a836113fd565b9150611b4a82611b09565b602082019050919050565b60006020820190508181036000830152611b6e81611b32565b9050919050565b7f596f7520616c726561647920766f7465642e20596f752063616e206f6e6c792060008201527f766f7465206f6e63652e00000000000000000000000000000000000000000000602082015250565b6000611bd1602a836113fd565b9150611bdc82611b75565b604082019050919050565b60006020820190508181036000830152611c0081611bc4565b9050919050565b6000611c1282610f3e565b91507fffffffffffffffffffffffffffffffffffffffffffffffffffffffffffffffff8203611c4457611c436119c4565b5b60018201905091905056fea26469706673582212203dc5559c2a153faeadd8bfad9ec0d05b5cbe8ba89dca06bc11b421008613d56364736f6c634300081b0033",
  "linkReferences": {},
  "deployedLinkReferences": {}
}