{
  "_format": "hh-sol-artifact-1",
  "contractName": "VotingV2",
  "sourceName": "contracts/Voting.sol",
  "abi": [
    {
      "inputs": [],
      "stateMutability": "nonpayable",
      "type": "constructor"
    },
    {
      "inputs": [
        {
          "internalType": "string",
          "name": "_name",
          "type": "string"
        }
      ],
      "name": "addCandidate",
      "outputs": [],
      "stateMutability": "nonpayable",
      "type": "function"
    },
    {
      "inputs": [
        {
          "internalType": "uint256",
          "name": "",
          "type": "uint256"
        }
      ],
      "name": "candidates",
      "outputs": [
        {
          "internalType": "uint256",
          "name": "id",
          "type": "uint256"
        },
        {
          "internalType": "string",
          "name": "name",
          "type": "string"
        },
        {
          "internalType": "uint256",
          "name": "votes",
          "type": "uint256"
        }
      ],
      "stateMutability": "view",
      "type": "function"
    },
    {
      "inputs": [],
      "name": "checkElectionPeriod",
      "outputs": [
        {
          "internalType": "bool",
          "name": "",
          "type": "bool"
        }
      ],
      "stateMutability": "nonpayable",
      "type": "function"
    },
    {
      "inputs": [],
      "name": "electionStarted",
      "outputs": [
        {
          "internalType": "bool",
          "name": "",
          "type": "bool"
        }
      ],
      "stateMutability": "view",
      "type": "function"
    },
    {
      "inputs": [],
      "name": "electionTimer",
      "outputs": [
        {
          "internalType": "uint256",
          "name": "",
          "type": "uint256"
        }
      ],
      "stateMutability": "view",
      "type": "function"
    },
    {
      "inputs": [],
      "name": "endElection",
      "outputs": [],
      "stateMutability": "nonpayable",
      "type": "function"
    },
    {
      "inputs": [
        {
          "internalType": "uint256",
          "name": "",
          "type": "uint256"
        }
      ],
      "name": "listOfVoters",
      "outputs": [
        {
          "internalType": "address",
          "name": "",
          "type": "address"
        }
      ],
      "stateMutability": "view",
      "type": "function"
    },
    {
      "inputs": [],
      "name": "owner",
      "outputs": [
        {
          "internalType": "address",
          "name": "",
          "type": "address"
        }
      ],
      "stateMutability": "view",
      "type": "function"
    },
    {
      "inputs": [],
      "name": "resetAllVoterStatus",
      "outputs": [],
      "stateMutability": "nonpayable",
      "type": "function"
    },
    {
      "inputs": [],
      "name": "retrieveVotes",
      "outputs": [
        {
          "components": [
            {
              "internalType": "uint256",
              "name": "id",
              "type": "uint256"
            },
            {
              "internalType": "string",
              "name": "name",
              "type": "string"
            },
            {
              "internalType": "uint256",
              "name": "votes",
              "type": "uint256"
            }
          ],
          "internalType": "struct VotingV2.Candidate[]",
          "name": "",
          "type": "tuple[]"
        }
      ],
      "stateMutability": "view",
      "type": "function"
    },
    {
      "inputs": [
        {
          "internalType": "string[]",
          "name": "_candidates",
          "type": "string[]"
        },
        {
          "internalType": "uint256",
          "name": "_votingDuration",
          "type": "uint256"
        }
      ],
      "name": "startElection",
      "outputs": [],
      "stateMutability": "nonpayable",
      "type": "function"
    },
    {
      "inputs": [
        {
          "internalType": "uint256",
          "name": "_id",
          "type": "uint256"
        }
      ],
      "name": "voteTo",
      "outputs": [],
      "stateMutability": "nonpayable",
      "type": "function"
    },
    {
      "inputs": [
        {
          "internalType": "address",
          "name": "_voter",
          "type": "address"
        }
      ],
      "name": "voterStatus",
      "outputs": [
        {
          "internalType": "bool",
          "name": "",
          "type": "bool"
        }
      ],
      "stateMutability": "view",
      "type": "function"
    },
    {
      "inputs": [
        {
          "internalType": "address",
          "name": "",
          "type": "address"
        }
      ],
      "name": "voters",
      "outputs": [
        {
          "internalType": "bool",
          "name": "",
          "type": "bool"
        }
      ],
      "stateMutability": "view",
      "type": "function"
    },
    {
      "inputs": [],
      "name": "votingEnd",
      "outputs": [
        {
          "internalType": "uint256",
          "name": "",
          "type": "uint256"
        }
      ],
      "stateMutability": "view",
      "type": "function"
    },
    {
      "inputs": [],
      "name": "votingStart",
      "outputs": [
        {
          "internalType": "uint256",
          "name": "",
          "type": "uint256"
        }
      ],
      "stateMutability": "view",
      "type": "function"
    }
  ],
  "bytecode": "0x6080604052348015600f57600080fd5b5033600160006101000a81548173ffffffffffffffffffffffffffffffffffffffff021916908373ffffffffffffffffffffffffffffffffffffffff160217905550611ccd806100606000396000f3fe608060405234801561001057600080fd5b50600436106101005760003560e01c806359f7846811610097578063a3ec138d11610066578063a3ec138d1461028b578063d4608b72146102bb578063d4a6cac8146102c5578063d5346da1146102e357610100565b806359f784681461021557806385a386351461021f5780638da5cb5b1461023d5780639a53cbea1461025b57610100565b80633c9a4df3116100d35780633c9a4df31461018f5780633d7b995c146101ad578063462e91ec146101c9578063576cc4f2146101e557610100565b8063031e5004146101055780630b56a68114610123578063101158af1461013f5780633477ee2e1461015d575b600080fd5b61010d610301565b60405161011a9190611115565b60405180910390f35b61013d60048036038101906101389190611392565b610406565b005b6101476105e5565b60405161015491906113fd565b60405180910390f35b61017760048036038101906101729190611418565b6105eb565b6040516101869392919061148f565b60405180910390f35b6101976106ad565b6040516101a491906113fd565b60405180910390f35b6101c760048036038101906101c29190611418565b610723565b005b6101e360048036038101906101de91906114cd565b6108fb565b005b6101ff60048036038101906101fa9190611574565b610a9c565b60405161020c91906115bc565b60405180910390f35b61021d610b41565b005b610227610c52565b60405161023491906113fd565b60405180910390f35b610245610c58565b60405161025291906115e6565b60405180910390f35b61027560048036038101906102709190611418565b610c7e565b60405161028291906115e6565b60405180910390f35b6102a560048036038101906102a09190611574565b610cbd565b6040516102b291906115bc565b60405180910390f35b6102c3610cdd565b005b6102cd610e31565b6040516102da91906115bc565b60405180910390f35b6102eb610e6e565b6040516102f891906115bc565b60405180910390f35b60606000805480602002602001604051908101604052809291908181526020016000905b828210156103fd57838290600052602060002090600302016040518060600160405290816000820154815260200160018201805461036290611630565b80601f016020809104026020016040519081016040528092919081815260200182805461038e90611630565b80156103db5780601f106103b0576101008083540402835291602001916103db565b820191906000526020600020905b8154815290600101906020018083116103be57829003601f168201915b5050505050815260200160028201548152505081526020019060010190610325565b50505050905090565b600160009054906101000a900473ffffffffffffffffffffffffffffffffffffffff1673ffffffffffffffffffffffffffffffffffffffff163373ffffffffffffffffffffffffffffffffffffffff1614610496576040517f08c379a000000000000000000000000000000000000000000000000000000000815260040161048d906116d3565b60405180910390fd5b600660009054906101000a900460ff166104e5576040517f08c379a00000000000000000000000000000000000000000000000000000000081526004016104dc9061173f565b60405180910390fd5b6000806104f29190610e81565b6104fa610cdd565b60005b82518110156105a0576000604051806060016040528083815260200185848151811061052c5761052b61175f565b5b6020026020010151815260200160008152509080600181540180825580915050600190039060005260206000209060030201600090919091909150600082015181600001556020820151816001019081610586919061193a565b5060408201518160020155505080806001019150506104fd565b506001600660006101000a81548160ff02191690831515021790555042600481905550603c816105d09190611a3b565b426105db9190611a7d565b6005819055505050565b60045481565b600081815481106105fb57600080fd5b906000526020600020906003020160009150905080600001549080600101805461062490611630565b80601f016020809104026020016040519081016040528092919081815260200182805461065090611630565b801561069d5780601f106106725761010080835404028352916020019161069d565b820191906000526020600020905b81548152906001019060200180831161068057829003601f168201915b5050505050908060020154905083565b6000600660009054906101000a900460ff166106fe576040517f08c379a00000000000000000000000000000000000000000000000000000000081526004016106f590611afd565b60405180910390fd5b60055442101561071b57426005546107169190611b1d565b61071e565b60005b905090565b600660009054906101000a900460ff16610772576040517f08c379a000000000000000000000000000000000000000000000000000000000815260040161076990611afd565b60405180910390fd5b61077a610e31565b6107b9576040517f08c379a00000000000000000000000000000000000000000000000000000000081526004016107b090611b9d565b60405180910390fd5b6107c233610a9c565b15610802576040517f08c379a00000000000000000000000000000000000000000000000000000000081526004016107f990611c2f565b60405180910390fd5b600081815481106108165761081561175f565b5b9060005260206000209060030201600201600081548092919061083890611c4f565b91905055506001600260003373ffffffffffffffffffffffffffffffffffffffff1673ffffffffffffffffffffffffffffffffffffffff16815260200190815260200160002060006101000a81548160ff0219169083151502179055506003339080600181540180825580915050600190039060005260206000200160009091909190916101000a81548173ffffffffffffffffffffffffffffffffffffffff021916908373ffffffffffffffffffffffffffffffffffffffff16021790555050565b600160009054906101000a900473ffffffffffffffffffffffffffffffffffffffff1673ffffffffffffffffffffffffffffffffffffffff163373ffffffffffffffffffffffffffffffffffffffff161461098b576040517f08c379a0000000000000000000000000000000000000000000000000000000008152600401610982906116d3565b60405180910390fd5b600660009054906101000a900460ff166109da576040517f08c379a00000000000000000000000000000000000000000000000000000000081526004016109d190611afd565b60405180910390fd5b6109e2610e31565b610a21576040517f08c379a0000000000000000000000000000000000000000000000000000000008152600401610a1890611b9d565b60405180910390fd5b60006040518060600160405280600080549050815260200183815260200160008152509080600181540180825580915050600190039060005260206000209060030201600090919091909150600082015181600001556020820151816001019081610a8c919061193a565b5060408201518160020155505050565b6000600660009054906101000a900460ff16610aed576040517f08c379a0000000000000000000000000000000000000000000000000000000008152600401610ae490611afd565b60405180910390fd5b600260008373ffffffffffffffffffffffffffffffffffffffff1673ffffffffffffffffffffffffffffffffffffffff16815260200190815260200160002060009054906101000a900460ff169050919050565b600160009054906101000a900473ffffffffffffffffffffffffffffffffffffffff1673ffffffffffffffffffffffffffffffffffffffff163373ffffffffffffffffffffffffffffffffffffffff1614610bd1576040517f08c379a0000000000000000000000000000000000000000000000000000000008152600401610bc8906116d3565b60405180910390fd5b600660009054906101000a900460ff16610c20576040517f08c379a0000000000000000000000000000000000000000000000000000000008152600401610c1790611afd565b60405180910390fd5b6000600660006101000a81548160ff021916908315150217905550600080610c489190610e81565b610c50610cdd565b565b60055481565b600160009054906101000a900473ffffffffffffffffffffffffffffffffffffffff1681565b60038181548110610c8e57600080fd5b906000526020600020016000915054906101000a900473ffffffffffffffffffffffffffffffffffffffff1681565b60026020528060005260406000206000915054906101000a900460ff1681565b600160009054906101000a900473ffffffffffffffffffffffffffffffffffffffff1673ffffffffffffffffffffffffffffffffffffffff163373ffffffffffffffffffffffffffffffffffffffff1614610d6d576040517f08c379a0000000000000000000000000000000000000000000000000000000008152600401610d64906116d3565b60405180910390fd5b60005b600380549050811015610e205760006002600060038481548110610d9757610d9661175f565b5b9060005260206000200160009054906101000a900473ffffffffffffffffffffffffffffffffffffffff1673ffffffffffffffffffffffffffffffffffffffff1673ffffffffffffffffffffffffffffffffffffffff16815260200190815260200160002060006101000a81548160ff0219169083151502179055508080600101915050610d70565b5060036000610e2f9190610ea5565b565b600080610e3c6106ad565b1115610e4b5760019050610e6b565b6000600660006101000a81548160ff021916908315150217905550600090505b90565b600660009054906101000a900460ff1681565b5080546000825560030290600052602060002090810190610ea29190610ec6565b50565b5080546000825590600052602060002090810190610ec39190610efd565b50565b5b80821115610ef957600080820160009055600182016000610ee89190610f1a565b600282016000905550600301610ec7565b5090565b5b80821115610f16576000816000905550600101610efe565b5090565b508054610f2690611630565b6000825580601f10610f385750610f57565b601f016020900490600052602060002090810190610f569190610efd565b5b50565b600081519050919050565b600082825260208201905092915050565b6000819050602082019050919050565b6000819050919050565b610f9981610f86565b82525050565b600081519050919050565b600082825260208201905092915050565b60005b83811015610fd9578082015181840152602081019050610fbe565b60008484015250505050565b6000601f19601f8301169050919050565b600061100182610f9f565b61100b8185610faa565b935061101b818560208601610fbb565b61102481610fe5565b840191505092915050565b60006060830160008301516110476000860182610f90565b506020830151848203602086015261105f8282610ff6565b91505060408301516110746040860182610f90565b508091505092915050565b600061108b838361102f565b905092915050565b6000602082019050919050565b60006110ab82610f5a565b6110b58185610f65565b9350836020820285016110c785610f76565b8060005b8581101561110357848403895281516110e4858261107f565b94506110ef83611093565b925060208a019950506001810190506110cb565b50829750879550505050505092915050565b6000602082019050818103600083015261112f81846110a0565b905092915050565b6000604051905090565b600080fd5b600080fd5b600080fd5b7f4e487b7100000000000000000000000000000000000000000000000000000000600052604160045260246000fd5b61118882610fe5565b810181811067ffffffffffffffff821117156111a7576111a6611150565b5b80604052505050565b60006111ba611137565b90506111c6828261117f565b919050565b600067ffffffffffffffff8211156111e6576111e5611150565b5b602082029050602081019050919050565b600080fd5b600080fd5b600067ffffffffffffffff82111561121c5761121b611150565b5b61122582610fe5565b9050602081019050919050565b82818337600083830152505050565b600061125461124f84611201565b6111b0565b9050828152602081018484840111156112705761126f6111fc565b5b61127b848285611232565b509392505050565b600082601f8301126112985761129761114b565b5b81356112a8848260208601611241565b91505092915050565b60006112c46112bf846111cb565b6111b0565b905080838252602082019050602084028301858111156112e7576112e66111f7565b5b835b8181101561132e57803567ffffffffffffffff81111561130c5761130b61114b565b5b8086016113198982611283565b855260208501945050506020810190506112e9565b5050509392505050565b600082601f83011261134d5761134c61114b565b5b813561135d8482602086016112b1565b91505092915050565b61136f81610f86565b811461137a57600080fd5b50565b60008135905061138c81611366565b92915050565b600080604083850312156113a9576113a8611141565b5b600083013567ffffffffffffffff8111156113c7576113c6611146565b5b6113d385828601611338565b92505060206113e48582860161137d565b9150509250929050565b6113f781610f86565b82525050565b600060208201905061141260008301846113ee565b92915050565b60006020828403121561142e5761142d611141565b5b600061143c8482850161137d565b91505092915050565b600082825260208201905092915050565b600061146182610f9f565b61146b8185611445565b935061147b818560208601610fbb565b61148481610fe5565b840191505092915050565b60006060820190506114a460008301866113ee565b81810360208301526114b68185611456565b90506114c560408301846113ee565b949350505050565b6000602082840312156114e3576114e2611141565b5b600082013567ffffffffffffffff81111561150157611500611146565b5b61150d84828501611283565b91505092915050565b600073ffffffffffffffffffffffffffffffffffffffff82169050919050565b600061154182611516565b9050919050565b61155181611536565b811461155c57600080fd5b50565b60008135905061156e81611548565b92915050565b60006020828403121561158a57611589611141565b5b60006115988482850161155f565b91505092915050565b60008115159050919050565b6115b6816115a1565b82525050565b60006020820190506115d160008301846115ad565b92915050565b6115e081611536565b82525050565b60006020820190506115fb60008301846115d7565b92915050565b7f4e487b7100000000000000000000000000000000000000000000000000000000600052602260045260246000fd5b6000600282049050600182168061164857607f821691505b60208210810361165b5761165a611601565b5b50919050565b7f596f7520617265206e6f7420617574686f72697a656420746f2073746172742060008201527f616e20656c656374696f6e000000000000000000000000000000000000000000602082015250565b60006116bd602b83611445565b91506116c882611661565b604082019050919050565b600060208201905081810360008301526116ec816116b0565b9050919050565b7f456c656374696f6e2069732063757272656e746c79206f6e676f696e67000000600082015250565b6000611729601d83611445565b9150611734826116f3565b602082019050919050565b600060208201905081810360008301526117588161171c565b9050919050565b7f4e487b7100000000000000000000000000000000000000000000000000000000600052603260045260246000fd5b60008190508160005260206000209050919050565b60006020601f8301049050919050565b600082821b905092915050565b6000600883026117f07fffffffffffffffffffffffffffffffffffffffffffffffffffffffffffffffff826117b3565b6117fa86836117b3565b95508019841693508086168417925050509392505050565b6000819050919050565b600061183761183261182d84610f86565b611812565b610f86565b9050919050565b6000819050919050565b6118518361181c565b61186561185d8261183e565b8484546117c0565b825550505050565b600090565b61187a61186d565b611885818484611848565b505050565b5b818110156118a95761189e600082611872565b60018101905061188b565b5050565b601f8211156118ee576118bf8161178e565b6118c8846117a3565b810160208510156118d7578190505b6118eb6118e3856117a3565b83018261188a565b50505b505050565b600082821c905092915050565b6000611911600019846008026118f3565b1980831691505092915050565b600061192a8383611900565b9150826002028217905092915050565b61194382610f9f565b67ffffffffffffffff81111561195c5761195b611150565b5b6119668254611630565b6119718282856118ad565b600060209050601f8311600181146119a45760008415611992578287015190505b61199c858261191e565b865550611a04565b601f1984166119b28661178e565b60005b828110156119da578489015182556001820191506020850194506020810190506119b5565b868310156119f757848901516119f3601f891682611900565b8355505b6001600288020188555050505b505050505050565b7f4e487b7100000000000000000000000000000000000000000000000000000000600052601160045260246000fd5b6000611a4682610f86565b9150611a5183610f86565b9250828202611a5f81610f86565b91508282048414831517611a7657611a75611a0c565b5b5092915050565b6000611a8882610f86565b9150611a9383610f86565b9250828201905080821115611aab57611aaa611a0c565b5b92915050565b7f4e6f20656c656374696f6e207965740000000000000000000000000000000000600082015250565b6000611ae7600f83611445565b9150611af282611ab1565b602082019050919050565b60006020820190508181036000830152611b1681611ada565b9050919050565b6000611b2882610f86565b9150611b3383610f86565b9250828203905081811115611b4b57611b4a611a0c565b5b92915050565b7f456c656374696f6e20706572696f642068617320656e6465642e000000000000600082015250565b6000611b87601a83611445565b9150611b9282611b51565b602082019050919050565b60006020820190508181036000830152611bb681611b7a565b9050919050565b7f596f7520616c726561647920766f7465642e20596f752063616e206f6e6c792060008201527f766f7465206f6e63652e00000000000000000000000000000000000000000000602082015250565b6000611c19602a83611445565b9150611c2482611bbd565b604082019050919050565b60006020820190508181036000830152611c4881611c0c565b9050919050565b6000611c5a82610f86565b91507fffffffffffffffffffffffffffffffffffffffffffffffffffffffffffffffff8203611c8c57611c8b611a0c565b5b60018201905091905056fea264697066735822122087c3341b6f952e4f29b463e5244e26c9a32e55773acb20dafdf95c87e799dac664736f6c634300081b0033",
  "linkReferences": {},
  "deployedLinkReferences": {}
}