{
  "_format": "hh-sol-artifact-1",
  "contractName": "Voting",
  "sourceName": "contracts/Voting.sol",
  "abi": [
    {
      "inputs": [],
      "stateMutability": "nonpayable",
      "type": "constructor"
    },
    {
      "inputs": [
        {
          "internalType": "string",
          "name": "_name",
          "type": "string"
        }
      ],
      "name": "addCandidate",
      "outputs": [],
      "stateMutability": "nonpayable",
      "type": "function"
    },
    {
      "inputs": [
        {
          "internalType": "uint256",
          "name": "",
          "type": "uint256"
        }
      ],
      "name": "candidates",
      "outputs": [
        {
          "internalType": "uint256",
          "name": "id",
          "type": "uint256"
        },
        {
          "internalType": "string",
          "name": "name",
          "type": "string"
        },
        {
          "internalType": "uint256",
          "name": "votes",
          "type": "uint256"
        }
      ],
      "stateMutability": "view",
      "type": "function"
    },
    {
      "inputs": [],
      "name": "checkElectionPeriod",
      "outputs": [
        {
          "internalType": "bool",
          "name": "",
          "type": "bool"
        }
      ],
      "stateMutability": "nonpayable",
      "type": "function"
    },
    {
      "inputs": [],
      "name": "electionStarted",
      "outputs": [
        {
          "internalType": "bool",
          "name": "",
          "type": "bool"
        }
      ],
      "stateMutability": "view",
      "type": "function"
    },
    {
      "inputs": [],
      "name": "electionTimer",
      "outputs": [
        {
          "internalType": "uint256",
          "name": "",
          "type": "uint256"
        }
      ],
      "stateMutability": "view",
      "type": "function"
    },
    {
      "inputs": [
        {
          "internalType": "uint256",
          "name": "",
          "type": "uint256"
        }
      ],
      "name": "listOfVoters",
      "outputs": [
        {
          "internalType": "address",
          "name": "",
          "type": "address"
        }
      ],
      "stateMutability": "view",
      "type": "function"
    },
    {
      "inputs": [],
      "name": "owner",
      "outputs": [
        {
          "internalType": "address",
          "name": "",
          "type": "address"
        }
      ],
      "stateMutability": "view",
      "type": "function"
    },
    {
      "inputs": [],
      "name": "resetAllVoterStatus",
      "outputs": [],
      "stateMutability": "nonpayable",
      "type": "function"
    },
    {
      "inputs": [],
      "name": "retrieveVotes",
      "outputs": [
        {
          "components": [
            {
              "internalType": "uint256",
              "name": "id",
              "type": "uint256"
            },
            {
              "internalType": "string",
              "name": "name",
              "type": "string"
            },
            {
              "internalType": "uint256",
              "name": "votes",
              "type": "uint256"
            }
          ],
          "internalType": "struct Voting.Candidate[]",
          "name": "",
          "type": "tuple[]"
        }
      ],
      "stateMutability": "view",
      "type": "function"
    },
    {
      "inputs": [
        {
          "internalType": "string[]",
          "name": "_candidates",
          "type": "string[]"
        },
        {
          "internalType": "uint256",
          "name": "_votingDuration",
          "type": "uint256"
        }
      ],
      "name": "startElection",
      "outputs": [],
      "stateMutability": "nonpayable",
      "type": "function"
    },
    {
      "inputs": [
        {
          "internalType": "uint256",
          "name": "_id",
          "type": "uint256"
        }
      ],
      "name": "voteTo",
      "outputs": [],
      "stateMutability": "nonpayable",
      "type": "function"
    },
    {
      "inputs": [
        {
          "internalType": "address",
          "name": "_voter",
          "type": "address"
        }
      ],
      "name": "voterStatus",
      "outputs": [
        {
          "internalType": "bool",
          "name": "",
          "type": "bool"
        }
      ],
      "stateMutability": "view",
      "type": "function"
    },
    {
      "inputs": [
        {
          "internalType": "address",
          "name": "",
          "type": "address"
        }
      ],
      "name": "voters",
      "outputs": [
        {
          "internalType": "bool",
          "name": "",
          "type": "bool"
        }
      ],
      "stateMutability": "view",
      "type": "function"
    },
    {
      "inputs": [],
      "name": "votingEnd",
      "outputs": [
        {
          "internalType": "uint256",
          "name": "",
          "type": "uint256"
        }
      ],
      "stateMutability": "view",
      "type": "function"
    },
    {
      "inputs": [],
      "name": "votingStart",
      "outputs": [
        {
          "internalType": "uint256",
          "name": "",
          "type": "uint256"
        }
      ],
      "stateMutability": "view",
      "type": "function"
    }
  ],
  "bytecode": "0x6080604052348015600f57600080fd5b5033600160006101000a81548173ffffffffffffffffffffffffffffffffffffffff021916908373ffffffffffffffffffffffffffffffffffffffff160217905550611bae806100606000396000f3fe608060405234801561001057600080fd5b50600436106100f55760003560e01c8063576cc4f211610097578063a3ec138d11610066578063a3ec138d14610276578063d4608b72146102a6578063d4a6cac8146102b0578063d5346da1146102ce576100f5565b8063576cc4f2146101da57806385a386351461020a5780638da5cb5b146102285780639a53cbea14610246576100f5565b80633477ee2e116100d35780633477ee2e146101525780633c9a4df3146101845780633d7b995c146101a2578063462e91ec146101be576100f5565b8063031e5004146100fa5780630b56a68114610118578063101158af14610134575b600080fd5b6101026102ec565b60405161010f9190610ff6565b60405180910390f35b610132600480360381019061012d9190611273565b6103f1565b005b61013c6105d7565b60405161014991906112de565b60405180910390f35b61016c600480360381019061016791906112f9565b6105dd565b60405161017b93929190611370565b60405180910390f35b61018c61069f565b60405161019991906112de565b60405180910390f35b6101bc60048036038101906101b791906112f9565b610715565b005b6101d860048036038101906101d391906113ae565b6108ed565b005b6101f460048036038101906101ef9190611455565b610a8e565b604051610201919061149d565b60405180910390f35b610212610b33565b60405161021f91906112de565b60405180910390f35b610230610b39565b60405161023d91906114c7565b60405180910390f35b610260600480360381019061025b91906112f9565b610b5f565b60405161026d91906114c7565b60405180910390f35b610290600480360381019061028b9190611455565b610b9e565b60405161029d919061149d565b60405180910390f35b6102ae610bbe565b005b6102b8610d12565b6040516102c5919061149d565b60405180910390f35b6102d6610d4f565b6040516102e3919061149d565b60405180910390f35b60606000805480602002602001604051908101604052809291908181526020016000905b828210156103e857838290600052602060002090600302016040518060600160405290816000820154815260200160018201805461034d90611511565b80601f016020809104026020016040519081016040528092919081815260200182805461037990611511565b80156103c65780601f1061039b576101008083540402835291602001916103c6565b820191906000526020600020905b8154815290600101906020018083116103a957829003601f168201915b5050505050815260200160028201548152505081526020019060010190610310565b50505050905090565b600160009054906101000a900473ffffffffffffffffffffffffffffffffffffffff1673ffffffffffffffffffffffffffffffffffffffff163373ffffffffffffffffffffffffffffffffffffffff1614610481576040517f08c379a0000000000000000000000000000000000000000000000000000000008152600401610478906115b4565b60405180910390fd5b60001515600660009054906101000a900460ff161515146104d7576040517f08c379a00000000000000000000000000000000000000000000000000000000081526004016104ce90611620565b60405180910390fd5b6000806104e49190610d62565b6104ec610bbe565b60005b8251811015610592576000604051806060016040528083815260200185848151811061051e5761051d611640565b5b6020026020010151815260200160008152509080600181540180825580915050600190039060005260206000209060030201600090919091909150600082015181600001556020820151816001019081610578919061181b565b5060408201518160020155505080806001019150506104ef565b506001600660006101000a81548160ff02191690831515021790555042600481905550603c816105c2919061191c565b426105cd919061195e565b6005819055505050565b60045481565b600081815481106105ed57600080fd5b906000526020600020906003020160009150905080600001549080600101805461061690611511565b80601f016020809104026020016040519081016040528092919081815260200182805461064290611511565b801561068f5780601f106106645761010080835404028352916020019161068f565b820191906000526020600020905b81548152906001019060200180831161067257829003601f168201915b5050505050908060020154905083565b6000600660009054906101000a900460ff166106f0576040517f08c379a00000000000000000000000000000000000000000000000000000000081526004016106e7906119de565b60405180910390fd5b60055442101561070d574260055461070891906119fe565b610710565b60005b905090565b600660009054906101000a900460ff16610764576040517f08c379a000000000000000000000000000000000000000000000000000000000815260040161075b906119de565b60405180910390fd5b61076c610d12565b6107ab576040517f08c379a00000000000000000000000000000000000000000000000000000000081526004016107a290611a7e565b60405180910390fd5b6107b433610a8e565b156107f4576040517f08c379a00000000000000000000000000000000000000000000000000000000081526004016107eb90611b10565b60405180910390fd5b6000818154811061080857610807611640565b5b9060005260206000209060030201600201600081548092919061082a90611b30565b91905055506001600260003373ffffffffffffffffffffffffffffffffffffffff1673ffffffffffffffffffffffffffffffffffffffff16815260200190815260200160002060006101000a81548160ff0219169083151502179055506003339080600181540180825580915050600190039060005260206000200160009091909190916101000a81548173ffffffffffffffffffffffffffffffffffffffff021916908373ffffffffffffffffffffffffffffffffffffffff16021790555050565b600160009054906101000a900473ffffffffffffffffffffffffffffffffffffffff1673ffffffffffffffffffffffffffffffffffffffff163373ffffffffffffffffffffffffffffffffffffffff161461097d576040517f08c379a0000000000000000000000000000000000000000000000000000000008152600401610974906115b4565b60405180910390fd5b600660009054906101000a900460ff166109cc576040517f08c379a00000000000000000000000000000000000000000000000000000000081526004016109c3906119de565b60405180910390fd5b6109d4610d12565b610a13576040517f08c379a0000000000000000000000000000000000000000000000000000000008152600401610a0a90611a7e565b60405180910390fd5b60006040518060600160405280600080549050815260200183815260200160008152509080600181540180825580915050600190039060005260206000209060030201600090919091909150600082015181600001556020820151816001019081610a7e919061181b565b5060408201518160020155505050565b6000600660009054906101000a900460ff16610adf576040517f08c379a0000000000000000000000000000000000000000000000000000000008152600401610ad6906119de565b60405180910390fd5b600260008373ffffffffffffffffffffffffffffffffffffffff1673ffffffffffffffffffffffffffffffffffffffff16815260200190815260200160002060009054906101000a900460ff169050919050565b60055481565b600160009054906101000a900473ffffffffffffffffffffffffffffffffffffffff1681565b60038181548110610b6f57600080fd5b906000526020600020016000915054906101000a900473ffffffffffffffffffffffffffffffffffffffff1681565b60026020528060005260406000206000915054906101000a900460ff1681565b600160009054906101000a900473ffffffffffffffffffffffffffffffffffffffff1673ffffffffffffffffffffffffffffffffffffffff163373ffffffffffffffffffffffffffffffffffffffff1614610c4e576040517f08c379a0000000000000000000000000000000000000000000000000000000008152600401610c45906115b4565b60405180910390fd5b60005b600380549050811015610d015760006002600060038481548110610c7857610c77611640565b5b9060005260206000200160009054906101000a900473ffffffffffffffffffffffffffffffffffffffff1673ffffffffffffffffffffffffffffffffffffffff1673ffffffffffffffffffffffffffffffffffffffff16815260200190815260200160002060006101000a81548160ff0219169083151502179055508080600101915050610c51565b5060036000610d109190610d86565b565b600080610d1d61069f565b1115610d2c5760019050610d4c565b6000600660006101000a81548160ff021916908315150217905550600090505b90565b600660009054906101000a900460ff1681565b5080546000825560030290600052602060002090810190610d839190610da7565b50565b5080546000825590600052602060002090810190610da49190610dde565b50565b5b80821115610dda57600080820160009055600182016000610dc99190610dfb565b600282016000905550600301610da8565b5090565b5b80821115610df7576000816000905550600101610ddf565b5090565b508054610e0790611511565b6000825580601f10610e195750610e38565b601f016020900490600052602060002090810190610e379190610dde565b5b50565b600081519050919050565b600082825260208201905092915050565b6000819050602082019050919050565b6000819050919050565b610e7a81610e67565b82525050565b600081519050919050565b600082825260208201905092915050565b60005b83811015610eba578082015181840152602081019050610e9f565b60008484015250505050565b6000601f19601f8301169050919050565b6000610ee282610e80565b610eec8185610e8b565b9350610efc818560208601610e9c565b610f0581610ec6565b840191505092915050565b6000606083016000830151610f286000860182610e71565b5060208301518482036020860152610f408282610ed7565b9150506040830151610f556040860182610e71565b508091505092915050565b6000610f6c8383610f10565b905092915050565b6000602082019050919050565b6000610f8c82610e3b565b610f968185610e46565b935083602082028501610fa885610e57565b8060005b85811015610fe45784840389528151610fc58582610f60565b9450610fd083610f74565b925060208a01995050600181019050610fac565b50829750879550505050505092915050565b600060208201905081810360008301526110108184610f81565b905092915050565b6000604051905090565b600080fd5b600080fd5b600080fd5b7f4e487b7100000000000000000000000000000000000000000000000000000000600052604160045260246000fd5b61106982610ec6565b810181811067ffffffffffffffff8211171561108857611087611031565b5b80604052505050565b600061109b611018565b90506110a78282611060565b919050565b600067ffffffffffffffff8211156110c7576110c6611031565b5b602082029050602081019050919050565b600080fd5b600080fd5b600067ffffffffffffffff8211156110fd576110fc611031565b5b61110682610ec6565b9050602081019050919050565b82818337600083830152505050565b6000611135611130846110e2565b611091565b905082815260208101848484011115611151576111506110dd565b5b61115c848285611113565b509392505050565b600082601f8301126111795761117861102c565b5b8135611189848260208601611122565b91505092915050565b60006111a56111a0846110ac565b611091565b905080838252602082019050602084028301858111156111c8576111c76110d8565b5b835b8181101561120f57803567ffffffffffffffff8111156111ed576111ec61102c565b5b8086016111fa8982611164565b855260208501945050506020810190506111ca565b5050509392505050565b600082601f83011261122e5761122d61102c565b5b813561123e848260208601611192565b91505092915050565b61125081610e67565b811461125b57600080fd5b50565b60008135905061126d81611247565b92915050565b6000806040838503121561128a57611289611022565b5b600083013567ffffffffffffffff8111156112a8576112a7611027565b5b6112b485828601611219565b92505060206112c58582860161125e565b9150509250929050565b6112d881610e67565b82525050565b60006020820190506112f360008301846112cf565b92915050565b60006020828403121561130f5761130e611022565b5b600061131d8482850161125e565b91505092915050565b600082825260208201905092915050565b600061134282610e80565b61134c8185611326565b935061135c818560208601610e9c565b61136581610ec6565b840191505092915050565b600060608201905061138560008301866112cf565b81810360208301526113978185611337565b90506113a660408301846112cf565b949350505050565b6000602082840312156113c4576113c3611022565b5b600082013567ffffffffffffffff8111156113e2576113e1611027565b5b6113ee84828501611164565b91505092915050565b600073ffffffffffffffffffffffffffffffffffffffff82169050919050565b6000611422826113f7565b9050919050565b61143281611417565b811461143d57600080fd5b50565b60008135905061144f81611429565b92915050565b60006020828403121561146b5761146a611022565b5b600061147984828501611440565b91505092915050565b60008115159050919050565b61149781611482565b82525050565b60006020820190506114b2600083018461148e565b92915050565b6114c181611417565b82525050565b60006020820190506114dc60008301846114b8565b92915050565b7f4e487b7100000000000000000000000000000000000000000000000000000000600052602260045260246000fd5b6000600282049050600182168061152957607f821691505b60208210810361153c5761153b6114e2565b5b50919050565b7f596f7520617265206e6f7420617574686f72697a656420746f2073746172742060008201527f616e20656c656374696f6e000000000000000000000000000000000000000000602082015250565b600061159e602b83611326565b91506115a982611542565b604082019050919050565b600060208201905081810360008301526115cd81611591565b9050919050565b7f456c656374696f6e2069732063757272656e746c79206f6e676f696e67000000600082015250565b600061160a601d83611326565b9150611615826115d4565b602082019050919050565b60006020820190508181036000830152611639816115fd565b9050919050565b7f4e487b7100000000000000000000000000000000000000000000000000000000600052603260045260246000fd5b60008190508160005260206000209050919050565b60006020601f8301049050919050565b600082821b905092915050565b6000600883026116d17fffffffffffffffffffffffffffffffffffffffffffffffffffffffffffffffff82611694565b6116db8683611694565b95508019841693508086168417925050509392505050565b6000819050919050565b600061171861171361170e84610e67565b6116f3565b610e67565b9050919050565b6000819050919050565b611732836116fd565b61174661173e8261171f565b8484546116a1565b825550505050565b600090565b61175b61174e565b611766818484611729565b505050565b5b8181101561178a5761177f600082611753565b60018101905061176c565b5050565b601f8211156117cf576117a08161166f565b6117a984611684565b810160208510156117b8578190505b6117cc6117c485611684565b83018261176b565b50505b505050565b600082821c905092915050565b60006117f2600019846008026117d4565b1980831691505092915050565b600061180b83836117e1565b9150826002028217905092915050565b61182482610e80565b67ffffffffffffffff81111561183d5761183c611031565b5b6118478254611511565b61185282828561178e565b600060209050601f8311600181146118855760008415611873578287015190505b61187d85826117ff565b8655506118e5565b601f1984166118938661166f565b60005b828110156118bb57848901518255600182019150602085019450602081019050611896565b868310156118d857848901516118d4601f8916826117e1565b8355505b6001600288020188555050505b505050505050565b7f4e487b7100000000000000000000000000000000000000000000000000000000600052601160045260246000fd5b600061192782610e67565b915061193283610e67565b925082820261194081610e67565b91508282048414831517611957576119566118ed565b5b5092915050565b600061196982610e67565b915061197483610e67565b925082820190508082111561198c5761198b6118ed565b5b92915050565b7f4e6f20656c656374696f6e207965740000000000000000000000000000000000600082015250565b60006119c8600f83611326565b91506119d382611992565b602082019050919050565b600060208201905081810360008301526119f7816119bb565b9050919050565b6000611a0982610e67565b9150611a1483610e67565b9250828203905081811115611a2c57611a2b6118ed565b5b92915050565b7f456c656374696f6e20706572696f642068617320656e6465642e000000000000600082015250565b6000611a68601a83611326565b9150611a7382611a32565b602082019050919050565b60006020820190508181036000830152611a9781611a5b565b9050919050565b7f596f7520616c726561647920766f7465642e20596f752063616e206f6e6c792060008201527f766f7465206f6e63652e00000000000000000000000000000000000000000000602082015250565b6000611afa602a83611326565b9150611b0582611a9e565b604082019050919050565b60006020820190508181036000830152611b2981611aed565b9050919050565b6000611b3b82610e67565b91507fffffffffffffffffffffffffffffffffffffffffffffffffffffffffffffffff8203611b6d57611b6c6118ed565b5b60018201905091905056fea2646970667358221220f88b8effd6370415830e8150ebf036b6c7dd585ead9485c81aad6d74955eda3664736f6c634300081b0033",
  "linkReferences": {},
  "deployedLinkReferences": {}
}